:020000040000FA
:0400000003EF00F01A
:020004000000FA
:0A000600010E046E330E056E300E7D
:10001000106E130E116E04C020F010C024F0F00E0C
:10002000201620322032203220322416243224326C
:100030002432243204C021F010C025F00F0E211606
:10004000251605C022F011C026F0F00E221622322D
:100050002232223222322616263226322632263208
:1000600005C023F011C027F00F0E23162716306AA3
:10007000316A2750236240EF00F0302A278E238E0A
:100080002650226247EF00F0302A268E228E25501D
:1000900021624EEF00F0302A258E218E24502062FE
:1000A00055EF00F0302A248E208E27BE75EF00F029
:1000B000275022BE63EF00F0226263EF00F0312A86
:1000C000228E75EF00F021BE6DEF00F021626DEF22
:1000D00000F0312A218E75EF00F020BE75EF00F0A0
:1000E000206275EF00F0312A208E26BE95EF00F0D9
:1000F000265023BE83EF00F0236283EF00F0312A05
:10010000238E95EF00F021BE8DEF00F021628DEF80
:1001100000F0312A218E95EF00F020BE95EF00F01F
:10012000206295EF00F0312A208E25BEB5EF00F059
:10013000255023BEA3EF00F02362A3EF00F0312A85
:10014000238EB5EF00F022BEADEF00F02262ADEFDE
:1001500000F0312A228EB5EF00F020BEB5EF00F09E
:100160002062B5EF00F0312A208E24BED5EF00F0DA
:10017000245023BEC3EF00F02362C3EF00F0312A06
:10018000238ED5EF00F022BECDEF00F02262CDEF3E
:1001900000F0312A228ED5EF00F021BED5EF00F01D
:0E01A0002162D5EF00F0312A218ED5EF00F05C
:00000001FF
